:020000020000FC
:100000001FC01895189518951895189515C018952E
:10001000189514C018951895189518951895189551
:1000200002C018951895C398002705BDC39804BD54
:10003000D9DCC39829DC18952ADE18951CDE1895A2
:10004000E0E6F0E000270193F430E9F7E036D9F775
:10005000EE27FF27EEE1FF27EA95F083E9F701E0BD
:10006000009383000FE50DBF04E00EBF00270DBD18
:100070000CBD05E00BBD0CED0ABD0AE00EBD00E0B5
:1000800002BF02E003BF01E109BF0DE007BB0AE3C5
:1000900008BB0FE301BB0FE302BB0EEF04BB0CEF89
:1000A00005BB08E008B904D5F1D214D032D68DDDF5
:1000B00000E607B907EE06B9789400270093A90077
:1000C000A0D61CDCC9DD66E071E06093720070931D
:1000D0007300089561E060937100F5DF0895A091C9
:1000E0007100A170A13061F4A0917400B09175000D
:1000F000C1E0D0E0AC0FBD1FA0937400B0937500B9
:100100000895609171006170613089F460917200AE
:10011000709173008091740090917500791739F493
:10012000681729F46091710062606093710008950E
:10013000A0917100A270A23009F401C095C20027FD
:10014000009374000093750011E0109371001091FA
:1001500076001078103009F008C0B49985C210916B
:1001600076001068109376007FC2B59B02C0B49BE6
:100170007BC2E8DB112710937600009183000030EA
:1001800049F0013069F0023089F00330B9F00430F1
:10019000D1F01BC001E000938300F7DC16DD63C2E1
:1001A00002E0009383003FDDC2DC5DC203E0009308
:1001B0008300EBDC4091CA0039D855C204E00093BB
:1001C00083000EDE50C23ADEE5CF0531F9F106318B
:1001D000F1F10731E9F10831E1F10931D9F10A31E1
:1001E000D1F10B31C9F10C31C1F10D31B9F10E3141
:1001F000B1F10932A9F10A32A1F10B3299F10233BE
:1002000091F1033389F1043381F1053379F1063338
:1002100071F1073369F10C3361F10D3359F10E338C
:1002200051F1063449F1003541F10A3539F10B3508
:1002300031F10C3529F1043621F1053619F1063674
:1002400011F10E3609F10238D1F11FC03BC14DC189
:1002500065C17DC1ECC1CFC1B2C195C119C131C168
:100260000FC102C1F3C0EAC0E1C0D8C0CFC0C6C050
:10027000B7C0B3C0AFC0A6C09BC090C04DC046C001
:100280003DC050C055C05AC061C00F3699F000370C
:1002900091F0083789F0093781F00A3779F0023890
:1002A00071F0033869F00C3861F00D3859F00E38F0
:1002B00051F0D9C151C056C05DC062C067C01CC0FA
:1002C00019C003C009C00FC0CEC14091EE004395D4
:1002D0004093EE001FD8C7C14091EF004395409373
:1002E000EF0018D8C0C14091F00043954093F00052
:1002F00011D8B9C1EBD9B7C1F2D9B5C10091AC00E1
:10030000B9D80093AC00402F91D7ADC13091AB006C
:100310009FDA3093AB00C4C33091AA0089DA3093DE
:10032000AA00BEC33091B00083DA3093B000B8C3E6
:100330003091B1008DDA3093B100B2C30091B200B8
:1003400099D80093B200402F71D78DC13091AD0084
:100350006FDA3093AD00A4C33091AE0079DA3093F8
:10036000AE009EC30091AF0085D80093AF00402F30
:100370005DD779C13091B3005BDA3093B30090C39D
:100380003091B40065DA3093B4008AC30091B500AF
:1003900071D80093B500402F49D765C10091A900DD
:1003A00003950A3008F000270093A90004DA5BC126
:1003B0000091A90003950A3008F000270093A900D6
:1003C000FAD951C10091970055D800939700402F5A
:1003D0002DD749C146D816D846C13AD813D843C1FB
:1003E000009191000395023009F001C000270093AD
:1003F0009100409191001AD7E7D735C140918F0005
:10040000439540938F00E0D7C1D72DC14091900014
:10041000439540939000D8D79BD725C140918B003E
:10042000439540938B00D0D775D71DC140918A006A
:10043000439540938A006ED7C7D715C14091890074
:1004400043954093890066D7BFD70DC100918100C5
:100450000395023009F001C000270093810040910C
:100460008100E4D61BD7FFC00091800003950730C0
:1004700009F001C0002700938000F2D50FD7F3C028
:1004800040917F00439540937F00B0D607D7EBC0E3
:100490000EE10093830028E02093690027E3209376
:1004A0006A0021E020936E00222720936B0021E058
:1004B00020936F0026E220936C0021E020937000CF
:1004C000D2C0CBC206E10093830028E020936900EC
:1004D00020936A0026E320936B0020936C0021E0B8
:1004E00020936F0020937000BEC007E1009383004B
:1004F00028E0209369002DE220936A0021E02093F8
:100500006E0029E320936B0021E020936F0029E324
:1005100020936C0020E020937000A5C008E10093B8
:10052000830028E02093690023E320936A0021E000
:1005300020936E0029E320936B0021E020936F004D
:1005400029E320936C0020E0209370008CC009E127
:100550000093830028E32093690020E020936D003E
:100560002FE320936A0020E020936E0027E320937E
:100570006B0021E020936F002EE120936C0021E0BE
:100580002093700070C00DE10093830029E3209355
:10059000690020E020936D0028E320936A0020E0AA
:1005A00020936E0021E320936B0021E020936F00E5
:1005B00026E020936C0020E02093700054C00CE1F2
:1005C0000093830029E32093690020E020936D00CD
:1005D00028E320936A0020E020936E002FE320930D
:1005E0006B0020E020936F0026E020936C0020E059
:1005F0002093700038C00BE10093830029E320931F
:10060000690020E020936D0028E320936A0020E039
:1006100020936E0021E320936B0021E020936F0074
:100620002FE320936C0020E0209370001CC00AE1AF
:100630000093830029E32093690020E020936D005C
:1006400028E320936A0020E020936E002FE320939C
:100650006B0020E020936F002FE320936C0020E0DC
:100660002093700000C018950895CFEFD1E0CA958F
:100670000000E9F7CFEFDA950000C9F7089566E0CA
:1006800071E06093780070937900089561E0609361
:100690007700F5DF0895A0917700A170A13061F493
:1006A000A0917A00B0917B00C1E0D0E0AC0FBD1FFB
:1006B000A0937A00B0937B000895609177006170F9
:1006C000613089F4609178007091790080917A00AE
:1006D00090917B00791739F4681729F460917700BD
:1006E0006260609377000895A0917700A270A230B5
:1006F00009F401C0D5C100E000937A0000937B00AB
:1007000011E01093770010917C001078103009F000
:100710000BC0B49BC5C1B599C3C1A7DF10917C00C4
:10072000106810937C00BCC1B59BBAC10BD91127CE
:1007300010937C00009183000130F9F10531F1F153
:100740000631E9F10831E1F10931D9F10A31D1F18C
:100750000B31C9F10C31C1F10D31B9F10E31B1F1EB
:100760000932A9F10A32A1F10B3299F1023391F168
:10077000033389F1043381F1053379F1063371F1E3
:10078000073369F1073161F10C3359F10D3351F140
:100790000E3349F1063441F1003539F10A3531F1B2
:1007A0000B3529F10C3521F1043619F1053611F11B
:1007B000063609F10E3601F120C04FC168C134C1BF
:1007C000E6C038C03CC049C07DC055C062C03FC112
:1007D00036C14EC821C118C10FC106C1FDC048C8ED
:1007E000EDC0E2C0D9C044C8CFC021C079C085C027
:1007F0003FC88BC097C03CC89DC00F3679F000370A
:1008000071F0083769F0093761F00A3759F00C3890
:1008100051F00D3849F00E3841F042C198C028C857
:100820009EC0AAC025C83CC042C048C039C1E9D258
:100830001FD836C100E500938300BDD731C10AE55A
:10084000009383004091AA00D0D74091AB00DFD73E
:1008500000E300939D0012D923C104E600938300B6
:100860004091B000C2D74091B100D1D700E30093CE
:100870009D0004D915C108E7009383004091B3009F
:10088000B4D74091B400C3D700E300939D00F6D8DD
:1008900007C10CE8009383004091EE003BD500C1F6
:1008A0000DE8009383004091EF0034D5F9C00EE8C5
:1008B000009383004091F0002DD5F2C010D81ED8CF
:1008C000D7D7EEC00EE6009383004091AD008DD7E0
:1008D0004091AE009CD700E300939D00CFD8E0C0CC
:1008E0000BE5009383004091AA0091D74091AB00A3
:1008F0008ED70CE000939D00D3C00CE500938300DD
:10090000EBD84091AC0092D4CBC005E600938300B5
:100910004091B0007CD74091B10079D70CE00093B2
:100920009D00BEC006E600938300D6D84091B20079
:100930007DD4B6C00FE6009383004091AD0067D729
:100940004091AE0064D70CE000939D00A9C000E781
:1009500000938300C1D84091B20068D4A1C009E7D8
:10096000009383004091B30052D74091B4004FD719
:100970000CE000939D0094C00AE700938300ACD87C
:100980004091B50053D48CC09FD272D789C006E481
:100990000093830010D784C00EE30093830040913E
:1009A00097009AD843D47CC00DE3009383002AD5E6
:1009B00093D864D80CE000939D0072C00CE30093C0
:1009C0008300002700939700009394001BD556D80E
:1009D00000E300939D0064C007E30093830040910F
:1009E000910024D4F1D45CC006E3009383004091CD
:1009F0008F00CCD4E9D454C005E300938300409128
:100A00009000A6D4E1D44CC004E30093830040914D
:100A10008B0080D4D9D444C003E300938300409179
:100A20008A0078D4D1D43CC002E30093830001E073
:100A300000939100409189006DD4C6D431C00BE27F
:100A40000093830040918100F1D328D429C00AE2A9
:100A50000093830005D322D423C005E100938300D3
:100A6000E2D828E02093690020936A0021E32093D4
:100A70006B0021E020936F002093700026E3209309
:100A80006C00222720936D0020936E0009C009E2BC
:100A90000093830001E000938100A8D3FFD300C03E
:100AA000089566E071E06093B7007093B800089510
:100AB00061E06093B600F5DF0895A091B600A170E3
:100AC000A13061F4A091B900B091BA00C1E0D0E0CA
:100AD000AC0FBD1FA093B900B093BA000895609108
:100AE000B6006170613089F46091B7007091B80010
:100AF0008091B9009091BA00791739F4681729F4F8
:100B00006091B60062606093B6000895A091B6004F
:100B1000A270A23009F401C0F4C000270093B9000C
:100B20000093BA0011E01093B6001091BB0010784A
:100B3000103009F008C0B199E4C01091BB001068F2
:100B40001093BB00DEC0B59B02C0B19BDAC0FAD6E1
:100B500011271093BB0000918300013041F1033055
:100B600039F1043031F1093229F1023321F1033333
:100B700019F1043311F1053309F1063301F10A3596
:100B8000F9F00B35F1F00436E9F00536E1F00E36F8
:100B9000D9F00F36D1F00837C9F00937C1F0023863
:100BA000B9F00338B1F00F3FA9F062D6A9C013C065
:100BB0001AC021C039C040C047C04EC055C05CC03B
:100BC00063C068C06DC072C077C07CC081C086C081
:100BD00018C01FC089C002E80093830000E300939F
:100BE0009D004CD78DC00091CA0047D6402F1ED320
:100BF0000093CA0085C000270093F1000093F20023
:100C00007FC003E8009383000CE000939D0036D77B
:100C100077C001E00093830000E000939D005CD763
:100C200000270093BE006CC040917F004A9540931E
:100C30007F00DCD233D364C0409189004A95409351
:100C4000890068D3C1D35CC040918A004A95409323
:100C50008A0060D3B9D354C040918B004A95409329
:100C60008B00B2D357D34CC0409190004A9540932B
:100C70009000AAD36DD344C040918F004A95409311
:100C80008F00A2D383D33CC03091AA00D9D5309332
:100C9000AA0036C03091AB00E3D53093AB0030C032
:100CA0003091B000CDD53093B0002AC03091B10062
:100CB000D7D53093B10024C03091AD00C1D5309369
:100CC000AD001EC03091AE00CBD53093AE0018C041
:100CD0003091B300B5D53093B30012C03091B40059
:100CE000BFD53093B4000CC0789408E108B9BDDCDE
:100CF000F8942FD8DCD401E00093830066D700C0BD
:100D00001895189561E070E0609364007093650039
:100D1000089561E060936300F5DF0895A09163009A
:100D2000A170A13061F4A0916600B0916700C1E0AC
:100D3000D0E0AC0FBD1FA0936600B093670008958C
:100D4000609163006170613089F46091640070911A
:100D500065008091660090916700791739F46817F3
:100D600029F46091630062606093630008951895B0
:100D7000A0916300A270A23009F401C040C000E05D
:100D80000093660000936700109163001D7F10932D
:100D9000630045B3437C45BB10916800113031F0CE
:100DA000123051F0133071F0143091F04061109115
:100DB0006A0020916E0014C0486010916B00209171
:100DC0006F000EC0446010916C002091700008C04C
:100DD00040621091690020916D0055275093680082
:100DE0005091680053955093680058B35A7F522B26
:100DF00000919E000423402712BB58BB45BB78944A
:100E00001895F8944091A90011E022E330E0429F48
:100E1000CBD000937F00B8D000938000B5D0009372
:100E20008100B2D000938800AFD000938900ACD08D
:100E300000938A00A9D000938B00A6D000938F0066
:100E4000A3D000939000A0D0009391009DD0009378
:100E500092009AD00093930097D00093940094D07E
:100E60000093950091D0009396008ED00093970048
:100E70008BD00093AA0088D00093AB0085D000935C
:100E8000AC0082D00093AD007FD00093AE007CD048
:100E90000093AF0079D00093B00076D00093B100FA
:100EA00073D00093B20070D00093B3006DD0009364
:100EB000B4006AD00093B50067D00093CA000091D7
:100EC000CA00DCD478940895F8944091A90011E008
:100ED00022E330E0429F00917F005ED000918000CD
:100EE00057D00091810054D00091880051D00091DA
:100EF00089004ED000918A004BD000918B0048D0E1
:100F000000918F0045D00091900042D00091910057
:100F10003FD0009192003CD00091930039D00091D5
:100F2000940036D00091950033D00091960030D0D7
:100F3000009197002DD00091AA002AD00091AB001B
:100F400027D00091AC0024D00091AD0021D00091B9
:100F5000AE001ED00091AF001BD00091B00018D0A1
:100F60000091B10015D00091B20012D00091B300F1
:100F70000FD00091B4000CD00091B50009D00091C1
:100F8000CA0006D078940895010E131E0DD008955E
:100F9000010E131E01D00895E199FECF0EBA1FBABB
:100FA0000DBBE29AE19A0895E199FECF0EBA1FBAFD
:100FB000E09A0DB30895E0E00E2E0FEF18EE23E057
:100FC0000395411B520BE0F7410F521F0093840021
:100FD0000FEF14E60395411B5009E0F7410F501D38
:100FE000009385000FEF1AE00395411BE8F7410FCE
:100FF00000938600409387000895113091F01230DD
:1010000099F01330A1F01430A9F01530B1F016307A
:10101000B9F01730C1F01830C9F01930D1F01030E4
:10102000D9F016E020E01BC01BE121E018C01FE052
:1010300021E015C016E221E012C01DE221E00FC040
:101040001DE321E00CC017E020E009C01FE321E010
:1010500006C01FE221E003C01FE320E000C00895A6
:1010600000918000003061F0013059F0023051F001
:10107000033049F0043041F0053039F0063031F0EA
:1010800006C01EC036C04EC066C07EC096C02EE1EF
:101090002093690021E020936D0029E320936A00EA
:1010A00021E020936E0028E320936B0020E0209342
:1010B0006F002FE320936C0020E0209370000895D0
:1010C0002EE12093690021E020936D0029E3209315
:1010D0006A0021E020936E0028E320936B0020E05B
:1010E00020936F0026E020936C0020E02093700096
:1010F00008952EE12093690021E020936D0029E3FB
:1011000020936A0021E020936E0028E320936B0077
:1011100020E020936F002BE120936C0021E02093CE
:10112000700008952EE12093690021E020936D0066
:1011300029E320936A0021E020936E0028E32093A6
:101140006B0020E020936F002FE020936C0021E0E3
:101150002093700008952EE12093690021E02093F0
:101160006D0029E320936A0021E020936E0028E3BC
:1011700020936B0020E020936F0026E220936C0008
:1011800021E02093700008952EE12093690021E072
:1011900020936D0029E320936A0021E020936E00E4
:1011A00028E320936B0020E020936F002DE2209332
:1011B0006C0021E02093700008952EE120936900D7
:1011C00021E020936D0029E320936A0021E0209321
:1011D0006E0028E320936B0020E020936F002DE346
:1011E00020936C0021E020937000089540917F00CF
:1011F00050E0E1DE1091870000DF10936C00209337
:10120000700010918600F9DE10936B0020936F0040
:1012100010918500F2DE10936A0020936E0018E0B2
:1012200020E01093690020936D000895403011F084
:10123000413009F001C019C028E02093690020E086
:1012400020936D002FE320936A0020E020936E002E
:1012500021E320936B0021E020936F0021E3209392
:101260006C0021E020937000089528E0209369002D
:1012700020E020936D002FE320936A0020E020936C
:101280006E0026E320936B0021E020936F0020E0A6
:1012900020936C0020E0209370000895009181005D
:1012A000013021F0002705BDC39A0895C39810911D
:1012B0008000103061F0113059F0123051F01330CD
:1012C00049F0143041F0153039F0163031F006C0D5
:1012D00008C00AC00CC00EC010C012C01127116097
:1012E00012C0112712600FC0112713600CC0112704
:1012F000146009C01127156006C01127166003C0CD
:101300001127176000C030917F0028E6212B25BDF2
:1013100033BD089550E04FDE18E020E010936900DF
:1013200020936D001091870068DE10936C0020936D
:1013300070001091860061DE10936B0020936F00A7
:10134000109185005ADE10936A0020936E00089574
:1013500050E031DE1FE321E01093690020936D001F
:10136000109187004ADE10936C002093700010915A
:10137000860043DE10936B0020936F001091850070
:101380003CDE10936A0020936E00089550E013DE57
:1013900011E321E01093690020936D001091870004
:1013A0002CDE10936C00209370001091860025DED7
:1013B00010936B0020936F00109185001EDE109338
:1013C0006A0020936E00089500919100003011F0A2
:1013D000D0D2089507D300918100013011F0C39A53
:1013E000089550E201D0089500918100013029F064
:1013F00008B3077F042708BB04C005B50F7D052788
:1014000005BD08954091960050E0D5DD109186000D
:10141000F4DD1093690020936D0010918700EDDDDD
:10142000246010936A0020936E004091950050E074
:10143000C2DD10918600E1DD10936B0020936F00F8
:1014400010918700DADD10936C00209370000895EE
:10145000109196001395143608F0112710939600FA
:1014600008951091950013951C3308F011271093DF
:10147000950008950395023009F001C000270895F2
:1014800000919400003009F01FC0009195000030D9
:1014900009F011C000919600003009F001C00895D4
:1014A000009196000A95009396000BE30093950037
:1014B000009394000EC0009195000A95009395004A
:1014C0000BE30093940005C0009194000A950093EB
:1014D0009400089500919700013009F401C0089527
:1014E000CFDF109196001030D1F710919500103099
:1014F000B1F710919400103091F7DFD000270093DE
:10150000970008952ED001D008951091EB002091FE
:10151000EC003091ED004091EE005091EF006091B1
:10152000F000141B250B360BD8F01093EB00209322
:10153000EC003093ED000091F1001091F20021E0F9
:101540003327020F131F0093F1001093F2002FE0D6
:1015500037E2021B130B20F00093F1001093F2000E
:10156000089505B11091EB00100F1093EB000027C8
:101570001091EC00101F1093EC001091ED00101F63
:101580001093ED0008950091C8003091C90011E05A
:101590002227010F321F0093C8003093C90008951D
:1015A00000270093C8000093C9000895ABDFEBDF6C
:1015B0000091C800083E31F40091C900033011F4D5
:1015C000EFDF01D0089586DF93D001D00895009118
:1015D000BE0003950C3319F00093BE001BC000271A
:1015E0000093BE000091BD0003950C3319F00093E9
:1015F000BD000FC06DD100270093BD000091BC005D
:101600000395083119F00093BC0003C00027009334
:10161000BC0001D008950091CA00013021F1009171
:10162000AC00003071F00091AB001091BD000117CB
:1016300041F40091AA001091BC00011711F437D0B9
:1016400035C00091AF00003089F10091AE001091DB
:10165000BD00011759F50091AD001091BC000117B4
:1016600029F525D023C00091B200003071F000911F
:10167000B1001091BD00011741F40091B00010912C
:10168000BC00011711F419D011C00091B500003051
:1016900069F00091B4001091BD00011739F4009178
:1016A000B3001091BC00011709F407D00895F6DDCE
:1016B0008BDE01E00093CA000895002705BD04BD3C
:1016C00091D1C39800270093CA0008950091BD00EE
:1016D00003950C3309F400270093BD000895009191
:1016E000BC000395083109F400270093BC0008955D
:1016F00000919F0003950C3319F000939F001AC0CE
:10170000002700939F000091A00003950C3319F06F
:101710000093A0000FC000270093A000FED000910E
:10172000A1000395043619F00093A10003C000271F
:101730000093A10008954091BD005091BC004093DA
:10174000A7005093A80011D008954091A000509197
:10175000A100513020F440919F005091A00040938F
:10176000A7005093A80001D008954091A80050E030
:1017700022DC1091860041DC1093690020936D00FB
:10178000109187003ADC246010936A0020936E0069
:101790004091A70050E00FDC109186002EDC1093E2
:1017A0006B0020936F001091870027DC10936C0072
:1017B00020937000089518E0222710936900209369
:1017C0006D0010936A0020936E0010936B002093BD
:1017D0006F004091A90050E0EEDB109187000DDC16
:1017E00010936C002093700008955527E4DB10914E
:1017F000860003DC1093690020936D001091870030
:10180000FCDB246010936A0020936E000895552736
:10181000D2DB10918600F1DB10936B0020936F00F8
:1018200010918700EADB10936C00209370000895FC
:101830003395383109F001C03327432FD6DF08959F
:101840003A953F3F09F001C037E1432FCEDF0895BD
:1018500033953C3309F001C03327432FD8DF089577
:101860003A953F3F09F001C03BE3432FD0DF089595
:1018700001E000938300A9D10895FCDD013011F44B
:1018800016DF08951ADF089500270093CA0000E0CC
:1018900008B90FEF0093830005E10093E300009384
:1018A000E40029D219D1BFD170D1112721E01093C2
:1018B000690020936D0010936A0020936E001093CE
:1018C0006B0020936F0010936C00209370000895BC
:1018D00002E00093E3000093E4000DD2089501E0DC
:1018E000002E112414EF31E00091EE0051DB009145
:1018F000EF004EDB0091F0004BDB089501E0002E7D
:10190000112414EF31E040DB0093EE003DDB009347
:10191000EF003ADB0093F00008950ED035DB102F76
:1019200033DB202F31E040E0130F241F05D0012FBF
:101930002FDB022F2DDB089501E0002E112417EF7D
:1019400031E00895002700939E0000939B000093D0
:101950009C00109198001D7F10939800089560E0FE
:1019600070E080E060938C0070938D0080938E0017
:10197000089561E060938800F2DF08956091880027
:101980006170613089F460918C0070918D0080915C
:101990008E0091E0A0E0690F7A1F8A1F60938C008F
:1019A00070938D0080938E0008956091880061701F
:1019B0006130B9F46091890070918A0080918B0048
:1019C00090918C00A0918D00B0918E008B1749F4FE
:1019D0007A1739F4691729F460918800626060937E
:1019E0008800089566276093880060938C00609358
:1019F0008D0060938E001895A0918800A270A2308F
:101A000061F500E000938C0000938D0000938E0040
:101A100011E010938800109193001078103829F08D
:101A20001091900048E050E204C010918F0040E017
:101A300050E020919200211759F4D6DC0027009342
:101A400092000091930010E801270093930005C0D5
:101A500020919200239520939200189568EC7AE0EB
:101A60006093990070939A000895709198006FEFB9
:101A70007170713009F060E0762F089561E0609335
:101A80009800ECDF0895A0919800A170A13061F456
:101A9000A0919B00B0919C00C1E0D0E0AC0FBD1FB5
:101AA000A0939B00B0939C00089560919800617092
:101AB000613089F46091990070919A0080919B0047
:101AC00090919C00791739F4681729F46091980077
:101AD0006260609398000895002700939E00009331
:101AE0009D0066276093980060939B0060939C0024
:101AF0001895A0919800A270A23089F400E000939C
:101B00009B0000939C00109198001D7F10939800FB
:101B100000919E0010919D00012700939E00189552
:101B200061E072E06093A3007093A400089561E007
:101B30006093A200F5DF0895A091A200A170A130EA
:101B400061F4A091A500B091A600C1E0D0E0AC0F77
:101B5000BD1FA093A500B093A60008956091A200B8
:101B60006170613089F46091A3007091A40080914C
:101B7000A5009091A600791739F4681729F46091AF
:101B8000A20062606093A200089566276093A2009D
:101B90006093A5006093A6001895A091A200A27082
:101BA000A23059F400E00093A5000093A600109124
:101BB000A2001D7F1093A200C8DD189567E072E0B7
:101BC0006093C0007093C100089561E06093BF000E
:101BD000F5DF0895A091BF00A170A13061F4A0913C
:101BE000C200B091C300C1E0D0E0AC0FBD1FA09314
:101BF000C200B093C30008956091BF00617061306E
:101C000089F46091C0007091C1008091C2009091F0
:101C1000C300791739F4681729F46091BF00626036
:101C20006093BF00089566276093BF006093C20071
:101C30006093C3001895A091BF00A270A23059F420
:101C400000E00093C2000093C3001091BF001D7F0D
:101C50001093BF0070DD189500916000013021F4F1
:101C600022D02CD036D00FD0009161000130A1F7E6
:101C70009DDC15D0F1CF0093620001E0009360007D
:101C8000009162000895002700936000089500937A
:101C9000620001E000936100009162000895002756
:101CA00000936100089509D7F6D419D237D866DEBB
:101CB000EADE42DF8FDF24D098D0089510D7FDD41C
:101CC00020D23ED872DEF1DE49DF96DF2BD09FD0E6
:101CD00008954ED82DD208D519D78EDE0ADF5DDFE4
:101CE000AADF47D0B3D0089562E070E06093DC00D3
:101CF0007093DD00089561E06093DB00F5DF0895E7
:101D0000A091DB00A170A13061F4A091DE00B09140
:101D1000DF00C1E0D0E0AC0FBD1FA093DE00B093A8
:101D2000DF0008956091DB006170613089F460919B
:101D3000DC007091DD008091DE009091DF0079176A
:101D400039F4681729F46091DB0062606093DB006E
:101D5000089500270093E2000093E1000093E00063
:101D6000A99866276093DB006093DE006093DF0034
:101D70001895A091DB00A270A23051F500E000930D
:101D8000DE000093DF001091DB001D7F1093DB006D
:101D900005B30270023011F0A99A01C0A99811E0B0
:101DA00022270091E000010F0093E0000091E10084
:101DB000021F0093E1000091E0001091E300011781
:101DC00039F40091E1001091E400011709F4C1DF3A
:101DD000189568E273E06093E7007093E800089557
:101DE00061E06093E600F5DF0895A091E600A17040
:101DF000A13061F4A091E900B091EA00C1E0D0E027
:101E0000AC0FBD1FA093E900B093EA000895609164
:101E1000E6006170613089F46091E7007091E8003C
:101E20008091E9009091EA00791739F4681729F454
:101E30006091E60062606093E60008956627609313
:101E4000E6006093E9006093EA001895A091E6002F
:101E5000A270A23061F500E00093E9000093EA006F
:101E60001091E6001D7F1093E6004091F100509123
:101E7000F200A1D810918400C0D8246010936900AA
:101E800020936D0010918500B8D810936A002093BC
:101E90006E0010918600B1D810936B0020936F00F4
:101EA00010918700AAD810936C00209370000895B9
:00000001FF
