:020000020000FC
:1000000019C009C008C007C007C005C00FC003C0A1
:1000100002C00EC001C01895C398002705BDC39843
:1000200004BD67DBC3980093D9001895C9DC189507
:10003000BBDC1895E0E6F0E000270193F430E9F727
:10004000E036D9F7EE27FF27EEE1FF27EA95F083A8
:10005000E9F701E0009383000FE50DBF04E00EBF58
:1000600000270DBD0CBD09E40BBD0EE30ABD0BE07E
:100070000EBD00E002BF02E003BF01E109BF0DE0D9
:1000800007BB0AE308BB0FE301BB0FE302BB0FEFA3
:1000900004BB0DEF05BB0AE008B9B4D4C3D218D035
:1000A0008CD52CDCBEDC789401E00093D9006DDCAB
:1000B00066E071E060937200709373000895709130
:1000C00071006FEF7170713009F060E0762F089564
:1000D00061E060937100ECDF0895A0917100A17060
:1000E000A13061F4A0917400B0917500C1E0D0E03E
:1000F000AC0FBD1FA0937400B0937500089560917C
:1001000071006170613089F46091720070917300C8
:100110008091740090917500791739F4681729F46B
:10012000609171006260609371000895A091710008
:10013000A270A23009F401C05AC2002700937400D3
:100140000093750011E01093710010917600107803
:10015000103009F008C0B4994AC2109176001068B6
:100160001093760044C2B59B02C0B49B40C21127D5
:100170001093760000918300003049F0013069F05F
:10018000023089F00330B9F00430D1F01DC001E035
:10019000009383008ADBB2DB29C202E00093830074
:1001A000DBDB55DB23C203E0009383007EDB409161
:1001B000D900B6D61BC2EBCF04E00093830016C271
:1001C00000E00093830012C20531D9F10631D1F16C
:1001D0000731C9F10831C1F10931B9F10A31B1F181
:1001E0000B31A9F10C31A1F10D3199F1093291F1E5
:1001F0000A3289F10B3281F1023379F1033371F163
:10020000043369F1053361F1063359F1073351F1D4
:100210000C3349F10D3341F10E3339F1063431F12C
:10022000003529F10A3521F10B3519F10C3511F1A1
:10023000043609F1053601F10636F9F00E36F1F013
:100240001EC003C115C12DC145C1B4C197C17AC13A
:100250005DC1FAC0F1C0E4C0D5C0CCC0C3C0BAC053
:10026000B1C0A8C099C095C091C088C07DC072C0FF
:100270002FC028C01FC032C037C03CC043C00F369B
:1002800069F0003761F0083759F0093751F00A3743
:1002900049F0023841F0033839F0A8C139C03EC0F6
:1002A00045C04AC04FC004C001C0A0C135D89EC1DE
:1002B0003CD89CC10091AC0057D70093AC00402FB4
:1002C0002FD694C13091AB00BDD93093AB0089C318
:1002D0003091AA00AFD93093AA0083C33091B00007
:1002E000A9D93093B0007DC33091B100ABD9309320
:1002F000B10077C30091B20037D70093B200402F0E
:100300000FD674C13091AD0095D93093AD0069C35B
:100310003091AE0097D93093AE0063C30091AF0027
:1003200023D70093AF00402FFBD560C13091B300BD
:1003300081D93093B30055C33091B40083D9309341
:10034000B4004FC30091B5000FD70093B500402F04
:10035000E7D54CC10091A90003950A3008F00027A9
:100360000093A9004DD842C10091A90003950A301D
:1003700008F000270093A90043D838C100919700E6
:10038000F3D600939700402FCBD530C1E4D6B4D636
:100390002DC1D8D6B1D62AC1009191000395023063
:1003A00009F001C000270093910040919100B8D559
:1003B00085D61CC140918F00439540938F007ED617
:1003C0005FD614C14091900043954093900076D63B
:1003D00039D60CC140918B00439540938B006ED66B
:1003E00013D604C140918A00439540938A000CD6ED
:1003F00065D6FCC04091890043954093890004D69E
:100400005DD6F4C0009181000395023009F001C06F
:100410000027009381004091810082D5B9D5E6C0C4
:10042000009180000395073009F001C00027009378
:10043000800090D4ADD5DAC040917F0043954093C1
:100440007F004ED5A5D5D2C0AEC206E10093830091
:1004500028E02093690020936A0026E320936B0034
:1004600020936C0021E020936F0020937000BEC0A9
:1004700007E10093830028E0209369002DE2209398
:100480006A0021E020936E0029E320936B0021E0B5
:1004900020936F0029E320936C0020E020937000EC
:1004A000A5C008E10093830028E02093690023E3BE
:1004B00020936A0021E020936E0029E320936B00D3
:1004C00021E020936F0029E320936C0020E020932B
:1004D00070008CC009E10093830028E32093690039
:1004E00020E020936D002FE320936A0020E020930A
:1004F0006E0027E320936B0021E020936F002EE134
:1005000020936C0021E02093700070C00DE10093F7
:10051000830029E32093690020E020936D0028E305
:1005200020936A0020E020936E0021E320936B006B
:1005300021E020936F0026E020936C0020E02093C0
:10054000700054C00CE10093830029E320936900FC
:1005500020E020936D0028E320936A0020E02093A0
:100560006E002FE320936B0020E020936F0026E0C5
:1005700020936C0020E02093700038C00BE10093C2
:10058000830029E32093690020E020936D0028E395
:1005900020936A0020E020936E0021E320936B00FB
:1005A00021E020936F002FE320936C0020E0209344
:1005B00070001CC00AE10093830029E320936900C6
:1005C00020E020936D0028E320936A0020E0209330
:1005D0006E002FE320936B0020E020936F002FE349
:1005E00020936C0020E02093700000C018950895BF
:1005F000CFEFD1E0CA950000E9F7CFEFDA95000020
:10060000C9F7089566E071E060937800709379000F
:100610000895709177006FEF7170713009F060E0AC
:10062000762F089561E060937700ECDF0895A09144
:100630007700A170A13061F4A0917A00B0917B00A5
:10064000C1E0D0E0AC0FBD1FA0937A00B0937B0057
:100650000895609177006170613089F4609178004D
:100660007091790080917A0090917B00791739F42C
:10067000681729F4609177006260609377000895AD
:10068000A0917700A270A23009F401C0AAC100E0D5
:1006900000937A0000937B0011E010937700109193
:1006A0007C001078103009F00BC0B49B9AC1B5994A
:1006B00098C19EDF10917C00106810937C0091C15E
:1006C000B59B8FC1112710937C00009183000130EE
:1006D000E9F10531E1F10631D9F10831D1F1093102
:1006E000C9F10A31C1F10B31B9F10C31B1F10D3160
:1006F000A9F10932A1F10A3299F10B3291F10233D9
:1007000089F1033381F1043379F1053371F1063353
:1007100069F1073361F1073159F10C3351F10D33B0
:1007200049F10E3341F1063439F1003531F10A3522
:1007300029F10B3521F10C3519F1043611F105368B
:1007400009F1063601F10E36F9F01FC02CC140C187
:1007500011C1C3C02EC032C03FC05AC04BC01DC162
:1007600014C178C7FFC0F6C0EDC0E4C0DBC072C7DB
:10077000CBC0C0C0B7C06EC7ADC018C057C063C043
:1007800069C769C075C066C77BC00F3649F00037BE
:1007900041F0083739F0093731F00A3729F021C123
:1007A0007CC058C782C08EC055C71BC143D652D724
:1007B00018C100E50093830023D613C10AE5009316
:1007C00083004091AA0013D74091AB0022D700E3E9
:1007D00000939D00DAD705C104E6009383004091A1
:1007E000B00005D74091B10014D700E300939D00FD
:1007F000CCD7F7C008E7009383004091B300F7D649
:100800004091B40006D700E300939D00BED7E9C035
:100810000EE6009383004091AD00E9D64091AE0012
:10082000F8D600E300939D00B0D7DBC00BE5009342
:1008300083004091AA00EDD64091AB00EAD60CE0CF
:1008400000939D00CEC00CE500938300CCD740916F
:10085000AC0066D3C6C005E6009383004091B000AB
:10086000D8D64091B100D5D60CE000939D00B9C018
:1008700006E600938300B7D74091B20051D3B1C0D0
:100880000FE6009383004091AD00C3D64091AE00C7
:10089000C0D60CE000939D00A4C000E70093830045
:1008A000A2D74091B2003CD39CC009E700938300DB
:1008B0004091B300AED64091B400ABD60CE00093AB
:1008C0009D008FC00AE7009383008DD74091B5004B
:1008D00027D387C016D6BED684C006E40093830013
:1008E0008FD57FC00EE300938300409197007BD7A4
:1008F00017D377C00DE300938300FED374D745D799
:100900000CE000939D006DC00CE300938300002772
:100910000093970000939400EFD337D700E3009340
:100920009D005FC007E30093830040919100F8D2DF
:10093000C5D357C006E30093830040918F00A0D336
:10094000BDD34FC005E300938300409190007AD35C
:10095000B5D347C004E30093830040918B0054D388
:10096000ADD33FC003E30093830040918A004CD392
:10097000A5D337C002E30093830001E00093910008
:100980004091890041D39AD32CC00BE2009383009D
:1009900040918100C5D2FCD224C00AE200938300BA
:1009A000D9D1F6D21EC005E100938300D5D728E047
:1009B0002093690020936A0021E320936B0021E0DB
:1009C00020936F002093700026E320936C0009C0F1
:1009D00009E20093830001E00093810081D2D8D224
:1009E00000C0089566E071E06093B7007093B800AE
:1009F00008957091B6006FEF7170713009F060E08A
:100A0000762F089561E06093B600ECDF0895A09121
:100A1000B600A170A13061F4A091B900B091BA0004
:100A2000C1E0D0E0AC0FBD1FA093B900B093BA00F5
:100A300008956091B6006170613089F46091B700EB
:100A40007091B8008091B9009091BA00791739F48B
:100A5000681729F46091B60062606093B60008954B
:100A6000A091B600A270A23009F401C092C0002784
:100A70000093B9000093BA0011E01093B6001091F2
:100A8000BB001078103009F008C0B19982C01091F5
:100A9000BB0010681093BB007CC0B59B02C0B19B2B
:100AA00078C011271093BB0000918300013099F0AA
:100AB000033091F0093289F0023381F0033379F089
:100AC000043371F0053369F0063361F0023859F0F0
:100AD000033851F05DC009C010C02AC031C038C011
:100AE0003FC046C04DC011C018C002E8009383004B
:100AF00000E300939D0049D64BC00091D900AFD5CB
:100B0000402F0ED20093D90043C003E80093830026
:100B10000CE000939D0039D63BC001E000938300B8
:100B200000E000939D005FD600270093BE0030C018
:100B300040917F004A9540937F00D2D129D228C0AE
:100B4000409189004A95409389005ED2B7D220C077
:100B500040918A004A9540938A0056D2AFD218C07D
:100B600040918B004A9540938B00A8D24DD210C083
:100B7000409190004A9540939000A0D263D208C063
:100B800040918F004A9540938F0098D279D200C04F
:100B90001895189561E070E06093640070936500AB
:100BA000089501E000936800709163006FEF717029
:100BB000713009F060E0762F089561E06093630082
:100BC000E9DF0895A0916300A170A13061F4A091C4
:100BD0006600B0916700C1E0D0E0AC0FBD1FA093EC
:100BE0006600B093670008956091630061706130A2
:100BF00089F4609164007091650080916600909125
:100C00006700791739F4681729F46091630062600E
:100C10006093630008951895A0916300A270A230BC
:100C200009F401C040C000E0009366000093670033
:100C3000109163001D7F1093630045B3437C45BB57
:100C400010916800113031F0123051F0133071F012
:100C5000143091F0406110916A0020916E0014C030
:100C6000486010916B0020916F000EC0446010919D
:100C70006C002091700008C04062109169002091C2
:100C80006D0055275093680050916800539550931C
:100C9000680058B35A7F522B00919E0004234027CE
:100CA00012BB58BB45BB78941895E0E00E2E0FEFB1
:100CB00018EE23E00395411B520BE0F7410F521F42
:100CC000009384000FEF14E60395411B5009E0F7F1
:100CD000410F501D009385000FEF1AE00395411B53
:100CE000E8F7410F00938600409387000895113084
:100CF00091F0123099F01330A1F01430A9F01530B2
:100D0000B1F01630B9F01730C1F01830C9F0193011
:100D1000D1F01030D9F016E020E01BC01BE121E03B
:100D200018C01FE021E015C016E221E012C01DE24C
:100D300021E00FC01DE321E00CC017E020E009C056
:100D40001FE321E006C01FE221E003C01FE320E013
:100D500000C0089500918000003061F0013059F02A
:100D6000023051F0033049F0043041F0053039F0E1
:100D7000063031F006C01EC036C04EC066C07EC010
:100D800096C02EE12093690021E020936D0029E3B5
:100D900020936A0021E020936E0028E320936B00EB
:100DA00020E020936F002FE320936C0020E020933D
:100DB000700008952EE12093690021E020936D00DA
:100DC00029E320936A0021E020936E0028E320931A
:100DD0006B0020E020936F0026E020936C0020E061
:100DE0002093700008952EE12093690021E0209364
:100DF0006D0029E320936A0021E020936E0028E330
:100E000020936B0020E020936F002BE120936C0077
:100E100021E02093700008952EE12093690021E0E5
:100E200020936D0029E320936A0021E020936E0057
:100E300028E320936B0020E020936F002FE02093A5
:100E40006C0021E02093700008952EE1209369004A
:100E500021E020936D0029E320936A0021E0209394
:100E60006E0028E320936B0020E020936F0026E2C1
:100E700020936C0021E02093700008952EE12093D0
:100E8000690021E020936D0029E320936A0021E0AE
:100E900020936E0028E320936B0020E020936F00E6
:100EA0002DE220936C0021E02093700008952EE144
:100EB0002093690021E020936D0029E320936A00CC
:100EC00021E020936E0028E320936B0020E0209324
:100ED0006F002DE320936C0021E0209370000895B3
:100EE00040917F0050E0E1DE1091870000DF109319
:100EF0006C002093700010918600F9DE10936B0057
:100F000020936F0010918500F2DE10936A00209309
:100F10006E0018E020E01093690020936D000895A2
:100F2000403011F0413009F001C019C028E0209391
:100F3000690020E020936D002FE320936A0020E0F9
:100F400020936E0021E320936B0021E020936F003B
:100F500021E320936C0021E020937000089528E0A5
:100F60002093690020E020936D002FE320936A0016
:100F700020E020936E0026E320936B0021E0209375
:100F80006F0020E020936C0020E020937000089513
:100F900000918100013021F0002705BDC39A08951A
:100FA000C39810918000103061F0113059F0123068
:100FB00051F0133049F0143041F0153039F016304B
:100FC00031F006C008C00AC00CC00EC010C012C06C
:100FD0001127116012C0112712600FC01127136072
:100FE0000CC01127146009C01127156006C0112715
:100FF000166003C01127176000C030917F0028E6FB
:10100000212B25BD33BD089550E04FDE18E020E0D0
:101010001093690020936D001091870068DE109393
:101020006C00209370001091860061DE10936B00BD
:1010300020936F00109185005ADE10936A00209370
:101040006E00089550E031DE1FE321E01093690047
:1010500020936D00109187004ADE10936C0020935E
:1010600070001091860043DE10936B0020936F0098
:10107000109185003CDE10936A0020936E00089565
:1010800050E013DE11E321E01093690020936D001E
:10109000109187002CDE10936C002093700010914B
:1010A000860025DE10936B0020936F001091850061
:1010B0001EDE10936A0020936E0008950091910047
:1010C000003011F0DDD2089514D300918100013079
:1010D00011F0C39A089550E201D008950091810063
:1010E000013029F008B3077F042708BB04C005B509
:1010F0000F7D052705BD08954091960050E0D5DD90
:1011000010918600F4DD1093690020936D0010911A
:101110008700EDDD246010936A0020936E004091FB
:10112000950050E0C2DD10918600E1DD10936B0068
:1011300020936F0010918700DADD10936C002093EC
:1011400070000895109196001395143608F0112739
:101150001093960008951091950013951C3308F094
:1011600011271093950008950395023009F001C0EE
:101170000027089500919400003009F01FC00091ED
:101180009500003009F011C000919600003009F080
:1011900001C00895009196000A95009396000BE314
:1011A00000939500009394000EC0009195000A955D
:1011B000009395000BE30093940005C00091940008
:1011C0000A9500939400089500919700013009F466
:1011D00001C00895CFDF109196001030D1F7109123
:1011E00095001030B1F710919400103091F781D232
:1011F00040E050E073DFC398002700939700089504
:101200001091D00013951A3010F0112703D01093CD
:10121000D0000895D9DF92D001D008950091BE008A
:1012200003950C3319F00093BE001AC000270093F9
:10123000BE000091BD0003950C3319F00093BD0072
:101240000EC000270093BD000091BC00039508313B
:1012500019F00093BC0003C000270093BC0001D02C
:1012600008950091D900013021F10091AC000030C7
:1012700071F00091AB001091BD00011741F4009195
:10128000AA001091BC00011711F437D035C00091AD
:10129000AF00003089F10091AE001091BD00011740
:1012A00059F50091AD001091BC00011729F525D02A
:1012B00023C00091B200003071F00091B100109194
:1012C000BD00011741F40091B0001091BC0001175E
:1012D00011F419D011C00091B500003069F00091EF
:1012E000B4001091BD00011739F40091B3001091C2
:1012F000BC00011709F407D008954ADEDFDE01E0E3
:101300000093D9000895002705BD04BDF2D1C3980C
:1013100000270093D90008950091BD0003950C3378
:1013200009F400270093BD0008950091BC000395C7
:10133000083109F400270093BC00089500919F0034
:1013400003950C3319F000939F0019C000270093F8
:101350009F000091A00003950C3319F00093A000AA
:101360000EC000270093A0000091A1000395043651
:1013700019F00093A10003C000270093A100089575
:101380004091BD005091BC004093A7005093A8002D
:1013900011D008954091A0005091A100513020F447
:1013A00040919F005091A0004093A7005093A80047
:1013B00001D008954091A80050E077DC109186009C
:1013C00096DC1093690020936D00109187008FDCEC
:1013D000246010936A0020936E004091A70050E0B3
:1013E00064DC1091860083DC10936B0020936F0007
:1013F000109187007CDC10936C002093700008959E
:1014000018E022271093690020936D0010936A0062
:1014100020936E0010936B0020936F004091A90001
:1014200050E043DC1091870062DC10936C00209345
:1014300070000895F8944091A90011E022E330E093
:10144000429FCED000937F00010E131EC9D000939F
:101450008000010E131EC4D000938100010E131EE4
:10146000BFD000938800010E131EBAD000938900EC
:10147000010E131EB5D000938A00010E131EB0D0CA
:1014800000938B00010E131EABD000938F00010E52
:10149000131EA6D000939000010E131EA1D000933E
:1014A0009100010E131E9CD000939200010E131E9A
:1014B00097D000939300010E131E92D000939400D6
:1014C000010E131E8DD000939500010E131E88D0BF
:1014D00000939600010E131E83D000939700010E17
:1014E000131E7ED000939F00010E131E79D000932F
:1014F000A000010E131E74D00093A10049DDDEDDB3
:101500000895F8944091A90011E022E330E0429F51
:1015100000917F005BD0010E131E0091800056D019
:10152000010E131E0091810051D0010E131E009177
:1015300088004CD0010E131E0091890047D0010E87
:10154000131E00918A0042D0010E131E00918B00E1
:101550003DD0010E131E00918F0038D0010E131ED6
:101560000091900033D0010E131E009191002ED0F7
:10157000010E131E0091920029D0010E131E00913E
:10158000930024D0010E131E009194001FD0010E71
:10159000131E009195001AD0010E131E00919600A3
:1015A00015D0010E131E0091970010D0010E131ECE
:1015B00000919F000BD0010E131E0091A00006D0D9
:1015C000010E131E0091A10001D00895E199FECFF4
:1015D000F8940EBA1FBA0DBBE29AE19A7894089576
:1015E000E199FECF0EBA1FBAE09A0DB308955527C0
:1015F0005CDB109186007BDB1093690020936D000B
:101600001091870074DB246010936A0020936E00B1
:10161000089555274ADB1091860069DB10936B0013
:1016200020936F001091870062DB10936C00209371
:10163000700008953395383109F001C03327432FE6
:10164000D6DF089533953C3309F001C03327432F8B
:10165000E0DF089501E00093830050D1089584DD18
:10166000013011F44ADE08954EDE089560E070E026
:1016700080E060938C0070938D0080938E000895BD
:1016800061E060938800F2DF0895609188006170E6
:10169000613089F460918C0070918D0080918E0092
:1016A00091E0A0E0690F7A1F8A1F60938C0070930D
:1016B0008D0080938E000895609188006170613084
:1016C000B9F46091890070918A0080918B009091AB
:1016D0008C00A0918D00B0918E008B1749F47A1781
:1016E00039F4691729F4609188006260609388007A
:1016F000089566276093880060938C0060938D0046
:1017000060938E001895A0918800A270A23061F5B8
:1017100000E000938C0000938D0000938E0011E098
:1017200010938800109193001078103829F01091D0
:10173000900048E050E204C010918F0040E050E07B
:1017400020919200211759F4C9DC002700939200E0
:101750000091930010E801270093930005C02091A9
:101760009200239520939200189568EC7AE060939C
:10177000990070939A000895709198006FEF7170BE
:10178000713009F060E0762F089561E06093980071
:10179000ECDF0895A0919800A170A13061F4A091B0
:1017A0009B00B0919C00C1E0D0E0AC0FBD1FA093A6
:1017B0009B00B0939C000895609198006170613027
:1017C00089F46091990070919A0080919B009091AA
:1017D0009C00791739F4681729F4609198006260C9
:1017E000609398000895002700939E0000939D0049
:1017F00066276093980060939B0060939C00189507
:10180000A0919800A270A23089F400E000939B00A0
:1018100000939C00109198001D7F109398000091F8
:101820009E0010919D00012700939E00189565E091
:1018300072E06093A3007093A40008957091A200D9
:101840006FEF7170713009F060E0762F089561E0FC
:101850006093A200ECDF0895A091A200A170A130D6
:1018600061F4A091A500B091A600C1E0D0E0AC0F5A
:10187000BD1FA093A500B093A60008956091A2009B
:101880006170613089F46091A3007091A40080912F
:10189000A5009091A600791739F4681729F4609192
:1018A000A20062606093A200089566276093A20080
:1018B0006093A5006093A6001895A091A200A27065
:1018C000A23059F400E00093A5000093A600109107
:1018D000A2001D7F1093A2005DDD189567E072E005
:1018E0006093C0007093C10008957091BF006FEFC6
:1018F0007170713009F060E0762F089561E06093B7
:10190000BF00ECDF0895A091BF00A170A13061F489
:10191000A091C200B091C300C1E0D0E0AC0FBD1FE8
:10192000A093C200B093C30008956091BF0061709E
:10193000613089F46091C0007091C1008091C20053
:101940009091C300791739F4681729F46091BF00AA
:1019500062606093BF00089566276093BF00609344
:10196000C2006093C3001895A091BF00A270A2307E
:1019700059F400E00093C2000093C3001091BF002F
:101980001D7F1093BF00FCDC1895009160000130B2
:1019900021F422D02BD034D00FD00091610001303F
:1019A000A1F72EDC15D0F1CF0093620001E0009387
:1019B0006000009162000895002700936000089580
:1019C0000093620001E000936100009162000895BD
:1019D00000270093610008951AD829D67ED3F2D843
:1019E00054DED8DE39DF8FDF21D0089522D831D6FA
:1019F00086D3FAD861DEE0DE41DF97DF29D0089593
:101A00000BD994D33DD62CD87EDEFADE56DFACDF80
:101A10003ED0089562E072E06093EB007093EC00BA
:101A2000089561E06093EA00F5DF0895A091EA006F
:101A3000A170A13061F4A091ED00B091EE00C1E081
:101A4000D0E0AC0FBD1FA093ED00B093EE00089561
:101A50006091EA006170613089F46091EB007091EF
:101A6000EC008091ED009091EE00791739F4681741
:101A700029F46091EA0062606093EA0008956627A5
:101A80006093EA006093ED006093EE001895A091DA
:101A9000EA00A270A23061F400E00093ED00009330
:101AA000EE0005B30270023011F0A99A01C0A998A6
:021AB000089597
:00000001FF
