:020000020000FC
:100000001FC01895189518951895189515C018952E
:10001000189514C018951895189518951895189551
:1000200002C018951895C398002705BDC39804BD54
:10003000A8DBC39838DB18950BDD1895FDDC189507
:10004000E0E6F0E000270193F430E9F7E036D9F775
:10005000EE27FF27EEE1FF27EA95F083E9F701E0BD
:10006000009383000FE50DBF04E00EBF00270DBD18
:100070000CBD09E40BBD0EE30ABD0BE00EBD00E0B4
:1000800002BF02E003BF01E109BF0DE007BB0AE3C5
:1000900008BB0FE301BB0FE302BB0FEF04BB0DEF87
:1000A00005BB08E008B9B3D4C2D217D09AD56EDC2C
:1000B000789401E00093D900B0DC66E071E06093D1
:1000C0007200709373000895709171006FEF7170FA
:1000D000713009F060E0762F089561E0609371005F
:1000E000ECDF0895A0917100A170A13061F4A0919E
:1000F0007400B0917500C1E0D0E0AC0FBD1FA093BB
:100100007400B09375000895609171006170613062
:1001100089F46091720070917300809174009091E5
:100120007500791739F4681729F4609171006260DD
:10013000609371000895A0917100A270A23009F43B
:1001400001C05AC20027009374000093750011E0AB
:1001500010937100109176001078103009F008C0EB
:10016000B4994AC21091760010681093760044C288
:10017000B59B02C0B49B40C211271093760000913A
:100180008300003049F0013069F0023089F003301B
:10019000B9F00430D1F01DC001E000938300CDDB45
:1001A000F5DB29C202E0009383001EDC98DB23C24A
:1001B00003E000938300C1DB4091D900AAD71BC2A2
:1001C000EBCF04E00093830016C200E000938300AD
:1001D00012C20531D9F10631D1F10731C9F1083127
:1001E000C1F10931B9F10A31B1F10B31A9F10C3189
:1001F000A1F10D3199F1093291F10A3289F10B32F5
:1002000081F1023379F1033371F1043369F105337C
:1002100061F1063359F1073351F10C3349F10D33D4
:1002200041F10E3339F1063431F1003529F10A3547
:1002300021F10B3519F10C3511F1043609F10536B0
:1002400001F10636F9F00E36F1F01EC003C115C1FA
:100250002DC145C1B4C197C17AC15DC1FAC0F1C019
:10026000E4C0D5C0CCC0C3C0BAC0B1C0A8C099C09A
:1002700095C091C088C07DC072C02FC028C01FC06B
:1002800032C037C03CC043C00F3669F0003761F060
:10029000083759F0093751F00A3749F0023841F070
:1002A000033839F0A8C139C03EC045C04AC04FC06C
:1002B00004C001C0A0C12AD99EC131D99CC10091FE
:1002C000AC004BD80093AC00402F23D794C13091A1
:1002D000AB00D5D93093AB0089C33091AA00C7D900
:1002E0003093AA0083C33091B000C1D93093B000DD
:1002F0007DC33091B100C3D93093B10077C3009171
:10030000B2002BD80093B200402F03D774C13091B4
:10031000AD00ADD93093AD0069C33091AE00AFD917
:100320003093AE0063C30091AF0017D80093AF00C5
:10033000402FEFD660C13091B30099D93093B3000C
:1003400055C33091B4009BD93093B4004FC3009192
:10035000B50003D80093B500402FDBD64CC1009107
:10036000A90003950A3008F000270093A90042D99C
:1003700042C10091A90003950A3008F000270093BC
:10038000A90038D938C100919700E7D700939700AA
:10039000402FBFD630C1D8D7A8D72DC1CCD7A5D72D
:1003A0002AC1009191000395023009F001C0002795
:1003B0000093910040919100ACD679D71CC1409137
:1003C0008F00439540938F0072D753D714C140914B
:1003D00090004395409390006AD72DD70CC140916F
:1003E0008B00439540938B0062D707D704C140919F
:1003F0008A00439540938A0000D759D7FCC04091AA
:100400008900439540938900F8D651D7F4C00091F4
:1004100081000395023009F001C00027009381009C
:100420004091810076D6ADD6E6C00091800003955C
:10043000073009F001C000270093800084D5A1D6C1
:10044000DAC040917F00439540937F0042D699D611
:10045000D2C0AEC206E10093830028E02093690079
:1004600020936A0026E320936B0020936C0021E028
:1004700020936F0020937000BEC007E100938300BB
:1004800028E0209369002DE220936A0021E0209368
:100490006E0029E320936B0021E020936F0029E395
:1004A00020936C0020E020937000A5C008E1009329
:1004B000830028E02093690023E320936A0021E071
:1004C00020936E0029E320936B0021E020936F00BE
:1004D00029E320936C0020E0209370008CC009E198
:1004E0000093830028E32093690020E020936D00AF
:1004F0002FE320936A0020E020936E0027E32093EF
:100500006B0021E020936F002EE120936C0021E02E
:100510002093700070C00DE10093830029E32093C5
:10052000690020E020936D0028E320936A0020E01A
:1005300020936E0021E320936B0021E020936F0055
:1005400026E020936C0020E02093700054C00CE162
:100550000093830029E32093690020E020936D003D
:1005600028E320936A0020E020936E002FE320937D
:100570006B0020E020936F0026E020936C0020E0C9
:100580002093700038C00BE10093830029E320938F
:10059000690020E020936D0028E320936A0020E0AA
:1005A00020936E0021E320936B0021E020936F00E5
:1005B0002FE320936C0020E0209370001CC00AE120
:1005C0000093830029E32093690020E020936D00CD
:1005D00028E320936A0020E020936E002FE320930D
:1005E0006B0020E020936F002FE320936C0020E04D
:1005F0002093700000C018950895CFEFD1E0CA9500
:100600000000E9F7CFEFDA950000C9F7089566E03A
:1006100071E060937800709379000895709177008D
:100620006FEF7170713009F060E0762F089561E02E
:1006300060937700ECDF0895A0917700A170A1305E
:1006400061F4A0917A00B0917B00C1E0D0E0AC0FE2
:10065000BD1FA0937A00B0937B000895609177004E
:100660006170613089F460917800709179008091B7
:100670007A0090917B00791739F4681729F460911A
:1006800077006260609377000895A0917700A27070
:10069000A23009F401C0AAC100E000937A000093DF
:1006A0007B0011E01093770010917C0010781030DF
:1006B00009F00BC0B49B9AC1B59998C19EDF109107
:1006C0007C00106810937C0091C1B59B8FC11127ED
:1006D00010937C00009183000130E9F10531E1F1D4
:1006E0000631D9F10831D1F10931C9F10A31C1F12D
:1006F0000B31B9F10C31B1F10D31A9F10932A1F190
:100700000A3299F10B3291F1023389F1033381F10D
:10071000043379F1053371F1063369F1073361F17F
:10072000073159F10C3351F10D3349F10E3341F1D9
:10073000063439F1003531F10A3529F10B3521F153
:100740000C3519F1043611F1053609F1063601F1BF
:100750000E36F9F01FC02CC140C111C1C3C02EC05C
:1007600032C03FC05AC04BC01DC114C190C7FFC0AA
:10077000F6C0EDC0E4C0DBC08AC7CBC0C0C0B7C004
:1007800086C7ADC018C057C063C081C769C075C0F7
:100790007EC77BC00F3649F0003741F0083739F08B
:1007A000093731F00A3729F021C17CC070C782C0F7
:1007B0008EC06DC71BC18DD26AD718C100E50093EA
:1007C000830018D713C10AE5009383004091AA0063
:1007D0002BD74091AB003AD700E300939D001DD882
:1007E00005C104E6009383004091B0001DD74091FD
:1007F000B1002CD700E300939D000FD8F7C008E7A5
:10080000009383004091B3000FD74091B4001ED7EE
:1008100000E300939D0001D8E9C00EE60093830039
:100820004091AD0001D74091AE0010D700E3009396
:100830009D00F3D7DBC00BE5009383004091AA0035
:1008400005D74091AB0002D70CE000939D00CEC0CD
:100850000CE5009383000FD84091AC005AD4C6C079
:1008600005E6009383004091B000F0D64091B100BE
:10087000EDD60CE000939D00B9C006E6009383001E
:10088000FAD74091B20045D4B1C00FE6009383007F
:100890004091AD00DBD64091AE00D8D60CE000937D
:1008A0009D00A4C000E700938300E5D74091B2000B
:1008B00030D49CC009E7009383004091B300C6D6B2
:1008C0004091B400C3D60CE000939D008FC00AE7AE
:1008D00000938300D0D74091B5001BD487C060D26D
:1008E000D6D684C006E40093830084D67FC00EE38E
:1008F0000093830040919700BED70BD477C00DE3DF
:1009000000938300F2D4B7D788D70CE000939D0002
:100910006DC00CE3009383000027009397000093C1
:100920009400E3D47AD700E300939D005FC007E30F
:100930000093830040919100ECD3B9D457C006E3F3
:100940000093830040918F0094D4B1D44FC005E34D
:1009500000938300409190006ED4A9D447C004E373
:100960000093830040918B0048D4A1D43FC003E39F
:100970000093830040918A0040D499D437C002E3A9
:100980000093830001E0009391004091890035D4E9
:100990008ED42CC00BE20093830040918100B9D328
:1009A000F0D324C00AE200938300CDD2EAD31EC064
:1009B00005E10093830018D828E020936900209374
:1009C0006A0021E320936B0021E020936F002093C5
:1009D000700026E320936C0009C009E200938300B5
:1009E00001E00093810075D3CCD300C0089566E088
:1009F00071E06093B7007093B80008957091B600ED
:100A00006FEF7170713009F060E0762F089561E04A
:100A10006093B600ECDF0895A091B600A170A130FC
:100A200061F4A091B900B091BA00C1E0D0E0AC0F80
:100A3000BD1FA093B900B093BA0008956091B600AD
:100A40006170613089F46091B7007091B800809155
:100A5000B9009091BA00791739F4681729F46091B8
:100A6000B60062606093B6000895A091B600A270CF
:100A7000A23009F401C0A1C000270093B90000937F
:100A8000BA0011E01093B6001091BB00107810303E
:100A900009F008C0B19991C01091BB001068109383
:100AA000BB008BC0B59B02C0B19B87C011271093C0
:100AB000BB00009183000130A9F00330A1F009329E
:100AC00099F0023391F0033389F0043381F0053358
:100AD00079F0063371F0023869F0033861F00F3FA6
:100AE00059F06AC00AC011C02BC032C039C040C022
:100AF00047C04EC012C019C053C002E80093830023
:100B000000E300939D0089D657C00091D900C4D559
:100B1000402FFFD20093D9004FC003E80093830019
:100B20000CE000939D0079D647C001E0009383005C
:100B300000E000939D009FD600270093BE003CC0BC
:100B400040917F004A9540937F00C3D21AD334C0AE
:100B5000409189004A95409389004FD3A8D32CC077
:100B600040918A004A9540938A0047D3A0D324C07D
:100B700040918B004A9540938B0099D33ED31CC083
:100B8000409190004A954093900091D354D314C063
:100B900040918F004A9540938F0089D36AD30CC04F
:100BA000789408E108B929DDF894BAD7A0D401E017
:100BB00000938300EBD600C01895189561E070E0B3
:100BC0006093640070936500089501E000936800ED
:100BD000709163006FEF7170713009F060E0762FF3
:100BE000089561E060936300E9DF0895A0916300D8
:100BF000A170A13061F4A0916600B0916700C1E0DE
:100C0000D0E0AC0FBD1FA0936600B09367000895BD
:100C1000609163006170613089F46091640070914B
:100C200065008091660090916700791739F4681724
:100C300029F46091630062606093630008951895E1
:100C4000A0916300A270A23009F401C040C000E08E
:100C50000093660000936700109163001D7F10935E
:100C6000630045B3437C45BB10916800113031F0FF
:100C7000123051F0133071F0143091F04061109146
:100C80006A0020916E0014C0486010916B002091A2
:100C90006F000EC0446010916C002091700008C07D
:100CA00040621091690020916D00552750936800B3
:100CB0005091680053955093680058B35A7F522B57
:100CC00000919E000423402712BB58BB45BB78947B
:100CD0001895F8944091A90011E022E330E0429F7A
:100CE000D6D000937F00C1D000938000BED0009387
:100CF0008100BBD000938800B8D000938900B5D0A4
:100D000000938A00B2D000938B00AFD000938F0085
:100D1000ACD000939000A9D000939100A6D000938E
:100D20009200A3D000939300A0D0009394009DD094
:100D3000009395009AD00093960097D00093970067
:100D400094D000939F0091D00093A0008ED0009388
:100D5000A1008BD00093AA0088D00093AB0085D06F
:100D60000093AC0082D00093AD007FD00093AE0022
:100D70007CD00093AF0079D00093B00076D0009380
:100D8000B10073D00093B20070D00093B3006DD067
:100D90000093B4006AD00093B500F3D188D20895CF
:100DA000F8944091A90011E022E330E0429F0091C5
:100DB0007F0063D0009180005CD00091810059D009
:100DC0000091880056D00091890053D000918A008C
:100DD00050D000918B004DD000918F004AD00091EF
:100DE000900047D00091910044D00091920041D0F2
:100DF000009193003ED0009194003BD0009195006B
:100E000038D00091960035D00091970032D00091F3
:100E10009F002FD00091A0002CD00091A10029D0DC
:100E20000091AA0026D00091AB0023D00091AC0025
:100E300020D00091AD001DD00091AE001AD00091DD
:100E4000AF0017D00091B00014D00091B10011D0C4
:100E50000091B2000ED00091B3000BD00091B4000D
:100E600008D00091B50005D00895010E131E0FD0D3
:100E70000895010E131E01D00895E199FECFF89454
:100E80000EBA1FBA0DBBE29AE19A78940895E199DF
:100E9000FECF0EBA1FBAE09A0DB30895E0E00E2E11
:100EA0000FEF18EE23E00395411B520BE0F7410FC3
:100EB000521F009384000FEF14E60395411B500965
:100EC000E0F7410F501D009385000FEF1AE00395E6
:100ED000411BE8F7410F0093860040938700089577
:100EE000113091F0123099F01330A1F01430A9F0C4
:100EF0001530B1F01630B9F01730C1F01830C9F024
:100F00001930D1F01030D9F016E020E01BC01BE101
:100F100021E018C01FE021E015C016E221E012C058
:100F20001DE221E00FC01DE321E00CC017E020E02E
:100F300009C01FE321E006C01FE221E003C01FE358
:100F400020E000C0089500918000003061F0013081
:100F500059F0023051F0033049F0043041F00530CF
:100F600039F0063031F006C01EC036C04EC066C033
:100F70007EC096C02EE12093690021E020936D0091
:100F800029E320936A0021E020936E0028E3209358
:100F90006B0020E020936F002FE320936C0020E093
:100FA0002093700008952EE12093690021E02093A2
:100FB0006D0029E320936A0021E020936E0028E36E
:100FC00020936B0020E020936F0026E020936C00BC
:100FD00020E02093700008952EE12093690021E025
:100FE00020936D0029E320936A0021E020936E0096
:100FF00028E320936B0020E020936F002BE12093E7
:101000006C0021E02093700008952EE12093690088
:1010100021E020936D0029E320936A0021E02093D2
:101020006E0028E320936B0020E020936F002FE0F8
:1010300020936C0021E02093700008952EE120930E
:10104000690021E020936D0029E320936A0021E0EC
:1010500020936E0028E320936B0020E020936F0024
:1010600026E220936C0021E02093700008952EE189
:101070002093690021E020936D0029E320936A000A
:1010800021E020936E0028E320936B0020E0209362
:101090006F002DE220936C0021E0209370000895F2
:1010A0002EE12093690021E020936D0029E3209335
:1010B0006A0021E020936E0028E320936B0020E07B
:1010C00020936F002DE320936C0021E020937000AB
:1010D000089540917F0050E0E1DE1091870000DF2D
:1010E00010936C002093700010918600F9DE10932D
:1010F0006B0020936F0010918500F2DE10936A0060
:1011000020936E0018E020E01093690020936D009A
:101110000895403011F0413009F001C019C028E0B5
:101120002093690020E020936D002FE320936A0054
:1011300020E020936E0021E320936B0021E02093B8
:101140006F0021E320936C0021E02093700008954C
:1011500028E02093690020E020936D002FE3209386
:101160006A0020E020936E0026E320936B0021E0CC
:1011700020936F0020E020936C0020E0209370000B
:10118000089500918100013021F0002705BDC39A28
:101190000895C39810918000103061F0113059F01B
:1011A000123051F0133049F0143041F0153039F05D
:1011B000163031F006C008C00AC00CC00EC010C006
:1011C00012C01127116012C0112712600FC0112721
:1011D00013600CC01127146009C01127156006C0E8
:1011E0001127166003C01127176000C030917F00DF
:1011F00028E6212B25BD33BD089550E04FDE18E0D1
:1012000020E01093690020936D001091870068DE44
:1012100010936C00209370001091860061DE109393
:101220006B0020936F00109185005ADE10936A00C6
:1012300020936E00089550E031DE1FE321E010930B
:10124000690020936D00109187004ADE10936C00B6
:10125000209370001091860043DE10936B00209362
:101260006F00109185003CDE10936A0020936E00A1
:10127000089550E013DE11E321E0109369002093FC
:101280006D00109187002CDE10936C00209370008D
:101290001091860025DE10936B0020936F00109153
:1012A00085001EDE10936A0020936E000895009161
:1012B0009100003011F02CD2089563D2009181008A
:1012C000013011F0C39A089550E201D008950091C1
:1012D0008100013029F008B3077F042708BB04C050
:1012E00005B50F7D052705BD08954091960050E096
:1012F000D5DD10918600F4DD1093690020936D0018
:1013000010918700EDDD246010936A0020936E0039
:101310004091950050E0C2DD10918600E1DD109310
:101320006B0020936F0010918700DADD10936C0042
:10133000209370000895109196001395143608F0CC
:1013400011271093960008951091950013951C3362
:1013500008F011271093950008950395023009F0C5
:1013600001C00027089500919400003009F01FC0CB
:1013700000919500003009F011C0009196000030F6
:1013800009F001C00895009196000A950093960017
:101390000BE300939500009394000EC0009195001C
:1013A0000A95009395000BE30093940005C000910B
:1013B00094000A95009394000895009197000130DD
:1013C00009F401C00895CFDF109196001030D1F7D5
:1013D000109195001030B1F710919400103091F7F2
:1013E000D0D140E050E073DFC3980027009397000E
:1013F00008951091D00013951A3010F0112703D0E2
:101400001093D0000895D9DF93D001D008950091B2
:10141000BE0003950C3319F00093BE001BC00027DB
:101420000093BE000091BD0003950C3319F00093AA
:10143000BD000FC05CD100270093BD000091BC002F
:101440000395083119F00093BC0003C000270093F6
:10145000BC0001D008950091D900013021F1009124
:10146000AC00003071F00091AB001091BD0001178D
:1014700041F40091AA001091BC00011711F437D07B
:1014800035C00091AF00003089F10091AE0010919D
:10149000BD00011759F50091AD001091BC00011776
:1014A00029F525D023C00091B200003071F00091E1
:1014B000B1001091BD00011741F40091B0001091EE
:1014C000BC00011711F419D011C00091B500003013
:1014D00069F00091B4001091BD00011739F400913A
:1014E000B3001091BC00011709F407D0089549DE3C
:1014F000DEDE01E00093D9000895002705BD04BD9C
:1015000040D1C39800270093D90008950091BD00F1
:1015100003950C3309F400270093BD000895009152
:10152000BC000395083109F400270093BC0008951E
:1015300000919F0003950C3319F000939F0019C090
:10154000002700939F000091A00003950C3319F031
:101550000093A0000EC000270093A0000091A100FE
:101560000395043619F00093A10003C000270093EF
:10157000A10008954091BD005091BC004093A70088
:101580005093A80011D008954091A0005091A1005F
:10159000513020F440919F005091A0004093A7004B
:1015A0005093A80001D008954091A80050E076DC47
:1015B0001091860095DC1093690020936D001091C6
:1015C00087008EDC246010936A0020936E004091A7
:1015D000A70050E063DC1091860082DC10936B0062
:1015E00020936F00109187007BDC10936C00209398
:1015F0007000089518E022271093690020936D0071
:1016000010936A0020936E0010936B0020936F007C
:101610004091A90050E042DC1091870061DC1093FA
:101620006C00209370000895552738DC10918600D7
:1016300057DC1093690020936D001091870050DCF7
:10164000246010936A0020936E000895552726DCCD
:101650001091860045DC10936B0020936F00109171
:1016600087003EDC10936C00209370000895339542
:10167000383109F001C03327432FD6DF0895339561
:101680003C3309F001C03327432FE0DF089501E028
:10169000009383007BD1089560DE013011F427DFD1
:1016A00008952BDF089500270093D90000E008B9C2
:1016B0000FEF0093830005E10093F2000093F30025
:1016C00001D2D9D091D139D1112721E010936900ED
:1016D00020936D0010936A0020936E0010936B00AE
:1016E00020936F0010936C0020937000089502E027
:1016F0000093F2000093F300E5D1089560E070E0FC
:1017000080E060938C0070938D0080938E0008952C
:1017100061E060938800F2DF089560918800617055
:10172000613089F460918C0070918D0080918E0001
:1017300091E0A0E0690F7A1F8A1F60938C0070937C
:101740008D0080938E0008956091880061706130F3
:10175000B9F46091890070918A0080918B0090911A
:101760008C00A0918D00B0918E008B1749F47A17F0
:1017700039F4691729F460918800626060938800E9
:10178000089566276093880060938C0060938D00B5
:1017900060938E001895A0918800A270A23061F528
:1017A00000E000938C0000938D0000938E0011E008
:1017B00010938800109193001078103829F0109140
:1017C000900048E050E204C010918F0040E050E0EB
:1017D00020919200211759F47ADD0027009392009E
:1017E0000091930010E801270093930005C0209119
:1017F0009200239520939200189568EC7AE060930C
:10180000990070939A000895709198006FEF71702D
:10181000713009F060E0762F089561E060939800E0
:10182000ECDF0895A0919800A170A13061F4A0911F
:101830009B00B0919C00C1E0D0E0AC0FBD1FA09315
:101840009B00B0939C000895609198006170613096
:1018500089F46091990070919A0080919B00909119
:101860009C00791739F4681729F460919800626038
:10187000609398000895002700939E0000939D00B8
:1018800066276093980060939B0060939C00189576
:10189000A0919800A270A23089F400E000939B0010
:1018A00000939C00109198001D7F10939800009168
:1018B0009E0010919D00012700939E00189565E001
:1018C00072E06093A3007093A40008957091A20049
:1018D0006FEF7170713009F060E0762F089561E06C
:1018E0006093A200ECDF0895A091A200A170A13046
:1018F00061F4A091A500B091A600C1E0D0E0AC0FCA
:10190000BD1FA093A500B093A60008956091A2000A
:101910006170613089F46091A3007091A40080919E
:10192000A5009091A600791739F4681729F4609101
:10193000A20062606093A200089566276093A200EF
:101940006093A5006093A6001895A091A200A270D4
:10195000A23059F400E00093A5000093A600109176
:10196000A2001D7F1093A2000FDE189567E072E0C1
:101970006093C0007093C10008957091BF006FEF35
:101980007170713009F060E0762F089561E0609326
:10199000BF00ECDF0895A091BF00A170A13061F4F9
:1019A000A091C200B091C300C1E0D0E0AC0FBD1F58
:1019B000A093C200B093C30008956091BF0061700E
:1019C000613089F46091C0007091C1008091C200C3
:1019D0009091C300791739F4681729F46091BF001A
:1019E00062606093BF00089566276093BF006093B4
:1019F000C2006093C3001895A091BF00A270A230EE
:101A000059F400E00093C2000093C3001091BF009E
:101A10001D7F1093BF00AEDD18950091600001306E
:101A200021F422D02BD034D00FD0009161000130AE
:101A3000A1F7DFDC15D0F1CF0093620001E0009345
:101A400060000091620008950027009360000895EF
:101A50000093620001E0009361000091620008952C
:101A60000027009361000895D7D7E6D53BD3BED8B1
:101A700054DED8DE39DF8FDF2AD00895DFD7EED5E8
:101A800043D3C6D861DEE0DE41DF97DF32D0089570
:101A9000D7D851D3FAD5E9D77EDEFADE56DFACDFF0
:101AA0004FD0089562E070E06093EB007093EC001B
:101AB00008957091EA006FEF7170713009F060E085
:101AC000762F089561E06093EA00ECDF0895A0911D
:101AD000EA00A170A13061F4A091ED00B091EE0098
:101AE000C1E0D0E0AC0FBD1FA093ED00B093EE00BD
:101AF00008956091EA006170613089F46091EB00B3
:101B00007091EC008091ED009091EE00791739F41E
:101B1000681729F46091EA0062606093EA00089512
:101B200000270093F1000093F0000093EF00A998C4
:101B300066276093EA006093ED006093EE001895CD
:101B4000A091EA00A270A23051F500E00093ED00F0
:101B50000093EE001091EA001D7F1093EA0005B398
:101B60000270023011F0A99A01C0A99811E0222751
:101B70000091EF00010F0093EF000091F000021FB1
:101B80000093F0000091EF001091F200011739F47A
:101B90000091F0001091F300011709F4C1DF1895CE
:00000001FF
